:060000000A128A110C280F
:10000800FE00030EF0000A08F1000A128A15A62E57
:100018000A128A110F280A128A15DB250A128A1178
:10002800C1000A128A15DC250A128A11C2000A12B6
:100038008A11FF240A128A11FB00B201B301B4012C
:10004800B501B601B701B801B901BA01BB01BC01DC
:10005800BD01BE01BF01C00183010A128A11102A25
:1000680083120313AB00103027062804031D3D2814
:100078003E285E28BD01B601B701BC01BB01BE0127
:10008800FF30AB008030F60066300A128A157E26F3
:100098000A128A11C030F600BC300A128A157E2670
:1000A8000A128A11D030F60045300A128A157E26C7
:1000B8000A128A112A30831203132B0603196528A2
:1000C8006628882823302B0603196B286C28882873
:1000D8002B0A03197028712888280130FF007F082F
:1000E800BD0704303D0203187A287B2823290A30EB
:1000F800F2003B080A128A11EB270A128A118312AE
:1001080003132B07BB0023292A302B06031D8D2838
:100118008E289128BB01BD01232923302B06031DFE
:100128009628972823290A128A15F8250A128A116F
:100138008030F60075300A128A157E260A128A1156
:100148009030F60091300A128A157E260A128A111A
:10015800831203131215B430C00014299B30A60073
:100168006430F2000030F3004008A900AA01290811
:10017800F4002A08F5000A128A1599270A128A112A
:100188007208303E0A128A1509260A128A119C3012
:1001980083120313A6000A30A0000030A1000A3021
:1001A800F2000030F3004008A900AA012908F40071
:1001B8002A08F5000A128A1599270A128A11730863
:1001C80083120313A3007208A2000A128A15DB2601
:1001D8000A128A11831203132008303E0A128A1564
:1001E80009260A128A119D3083120313A6000A30C9
:1001F800A0000030A1004008A900AA012908A20017
:100208002A08A3000A128A15DB260A128A11831209
:1002180003132008303E0A128A1509260A128A1189
:10022800831203134008031D1A291B29B22840080A
:10023800031D1F2920292329BE01BE0A12110130DE
:10024800B6070318B70A0030B70710303606370468
:10025800031D2F2930299C29B601B7013C08031931
:1002680036293829013039290030BC00C830A600A9
:100278006430F2000030F3003B08A900AA01290805
:10028800F4002A08F5000A128A1599270A128A1119
:100298007208303E0A128A1509260A128A11C930D4
:1002A80083120313A6000A30A0000030A1000A3010
:1002B800F2000030F3003B08A900AA012908F40065
:1002C8002A08F5000A128A1599270A128A11730852
:1002D80083120313A3007208A2000A128A15DB26F0
:1002E8000A128A11831203132008303E0A128A1553
:1002F80009260A128A11CA3083120313A6000A308B
:10030800A0000030A1003B08A900AA012908A2000A
:100318002A08A3000A128A15DB260A128A118312F8
:1003280003132008303E0A128A1509260A128A1178
:10033800831203133C080319A229A329AB29C83047
:10034800F6000E300A128A157E260A128A11C83063
:1003580083120313A6006430F2000030F3003B0858
:10036800A900AA012908F4002A08F5000A128A152A
:1003780099270A128A117208303E0A128A1509262C
:100388000A128A11C93083120313A6000A30A0008A
:100398000030A1000A30F2000030F3003B08A90049
:1003A800AA012908F4002A08F5000A128A159927D3
:1003B8000A128A11730883120313A3007208A20099
:1003C8000A128A15DB260A128A11831203132008DF
:1003D800303E0A128A1509260A128A11CA30831277
:1003E8000313A6000A30A0000030A1003B08A900B2
:1003F800AA012908A2002A08A3000A128A15DB26E6
:100408000A128A11831203132008303E0A128A1531
:1004180009260A128A1108000A128A151C260A12CD
:100428008A1101300A128A155B260A128A11831270
:100438000313B100023041064204031D242A252A71
:10044800892A3103031D292A2A2A532A0330C10085
:100458000030C2001030AF000030B0000A128A1518
:10046800F8250A128A11C030F60012300A128A15CD
:100478007E260A128A114D3083120313AE001930FA
:10048800AD004F30AC00AC0B472AAD0B472AAE0B82
:10049800472A0A128A15F8250A128A113C2B0230BB
:1004A8003106031D582A592A622A0430C100003037
:1004B800C2001030AF000030B0004D2A03303106C2
:1004C800031D672A682A712A0530C1000030C2005E
:1004D8001030AF000030B0004D2A04303106031D43
:1004E800762A772A882A1E30C000BF010715121500
:1004F8000A128A15F8250A128A1107308312031383
:10050800C1000030C2003C2B3C2B0730410642049E
:10051800031D8F2A902ABD2A04303106031D952A0F
:10052800962AA72A40081E3EC0003C304002031C01
:100538009E2A9F2A3C2B0130FF007F08BF074008F6
:10054800C43EC0003C2B05303106031DAC2AAD2A41
:10055800B22A0930C1000030C2003C2B06303106F7
:10056800031DB72AB82A882A0A30C1000030C20001
:100578004D2A093041064204031DC32AC42A882A89
:1005880004303106031DC92ACA2A3C2B0715121547
:10059800812A0A128A1180270A128A1102308312CC
:1005A8000313C1000030C2000A128A15F8250A1286
:1005B8008A115D2B0A128A153A260A128A115D2BB6
:1005C8003008A8002F08A70031080A128A116723EB
:1005D8000A128A115D2B3008A8002F08A7003108DD
:1005E8000A128A1167230A128A115D2B3E08031D1D
:1005F800FE2AFF2A1C2B3008A8002F08A700310864
:100608000A128A1134200A128A11831203133E0334
:10061800031D0F2B102B5D2B0A128A15F8250A12C1
:100628008A11103083120313AF000030B000152A6E
:100638003E03031D202B212B5D2B3008A8002F081B
:10064800A70031080A128A1167230A128A115D2B42
:100658000A128A11F2250A128A115D2B071112114A
:100668005D2B071112110230C1000030C2005D2B52
:10067800831203134208003A0319432B5D2B4108E8
:10068800013A0319CD2A033A0319DE2A013A03195C
:10069800EF2A073A0319E42A013A0319FA2A023A17
:1006A80003192C2B0E3A0319322B033A0319352B55
:1006B8005D2B0F3083120313AF000030B000152AF2
:1006C8000A128A110C2883120313AB001030270674
:1006D8002804031D702B712B922BBA01C001BF0196
:1006E800B901B401B501B801FF30AB008030F600A4
:1006F80034300A128A157E260A128A11C030F60092
:10070800E6300A128A157E260A128A11D030F600BF
:1007180045300A128A157E260A128A112A30831257
:1007280003132B060319992B9A2BD82B23302B064E
:1007380003199F2BA02BD82B2B0A0319A42BA52B0D
:10074800D82B0130FF007F08BA0703303A0203189C
:10075800AE2BAF2BBD2B0A30F20040080A128A11CB
:10076800EB270A128A11831203132B07C000B90161
:10077800022C03303A02031CC22BC32B022C053077
:100788003A020318C82BC92B022C0A30F2003F0882
:100798000A128A11EB270A128A11831203132B07F4
:1007A800BF00B901B90A022C2A302B06031DDD2B24
:1007B800DE2BEF2B3908031DE22BE32BE62BC001C0
:1007C800BA01022C3903031DEA2BEB2B022CBF01C3
:1007D8000230BA00022C23302B06031DF42BF52B14
:1007E800022C0A128A15F8250A128A110730831278
:1007F8000313C1000030C200071512150130B407F9
:100808000318B50A0030B507103034063504031D47
:100818000E2C0F2C912CB401B50138080319152C96
:10082800172C0130182C0030B800C630A6000A304A
:10083800F2000030F3003F08A900AA012908F400DB
:100848002A08F5000A128A1599270A128A117208CD
:10085800303E0A128A1509260A128A11C7308312F5
:100868000313A6000A30A0000030A1003F08A90029
:10087800AA012908A2002A08A3000A128A15DB2661
:100888000A128A11831203132008303E0A128A15AD
:1008980009260A128A11C83083120313A6003A30B7
:1008A8000A128A1509260A128A11C93083120313FB
:1008B800A6000A30F2000030F3004008A900AA019F
:1008C8002908F4002A08F5000A128A1599270A123D
:1008D8008A117208303E0A128A1509260A128A11EC
:1008E800CA3083120313A6000A30A0000030A1000A
:1008F8004008A900AA012908A2002A08A3000A1290
:100908008A15DB260A128A11831203132008303E47
:100918000A128A1509260A128A1183120313380843
:100928000319972C982CBB2CAB2CC930F6000F3030
:100938000A128A157E260A128A11BB2CC630F600C6
:100948000F300A128A157E260A128A11BB2C390822
:10095800A900AA012A08003A0319B32CBB2C2908BC
:10096800003A0319992C013A0319A22CBB2C080050
:10097800F5007218C02CC42C831203130915C72C58
:100988008312031309117508F03988008914A630F9
:10099800F300F30BCD2C00008312031389107508A4
:1009A8000F39F30003300310F30DFF3E031DD72C5E
:1009B8000310730D88008914A630F300F30BE22CA2
:1009C80000008312031389101B30F4009E30F300DB
:1009D800F30BEC2CF40BEC2C00000800831203132F
:1009E80012149214FA308316031392008C14831293
:1009F800031312110800013405308A000408840A20
:100A0800820700342034203450346F34773465340E
:100A1800723469346E34673420344F344E342034A1
:100A2800203420340034203470346F347734653403
:100A3800723420343D34203439343034303457342F
:100A4800203420342034003420344D346934633465
:100A580072346F34773461347634653420344F34EB
:100A6800763465346E342034003453344534543489
:100A78002034543449344D344534203428344D34EA
:100A880053343A3453345334293400342A343A34FE
:100A980043344C34453441345234203420342334E4
:100AA8003A3445344E3454344534523400342034C6
:100AB80034342E34533474346134723474342F34EF
:100AC80052346534733475346D34653400345334BA
:100AD800453454342034543445344D345034283457
:100AE8006F34433429342034203400342034203403
:100AF8005034723465342D34483465346134743478
:100B080069346E3467342034003433342E3443343B
:100B18006F346E34763465346334743469346F34C6
:100B28006E340034543469346D34653420345234AE
:100B380065346D342E343D3420340034203454343C
:100B480069346D346534203455347034203421349C
:100B580000342034543449344D34453420343D3441
:100B6800203420340034203435342E345034613469
:100B780075347334653420340034203454344534A7
:100B88004D34503420343D3420340034203436344D
:100B98002E34533474346F34703420340034323487
:100BA8002E344734723469346C346C340034313444
:100BB8002E344D346934633472346F340034343431
:100BC8002E345334743461347234743400345434ED
:100BD80049344D3445342D34203400348030F60007
:100BE800A8300A128A157E260A128A1189308312C1
:100BF8000313A6000A30F2000030F3003F08A700F4
:100C0800A8012708F4002808F5000A128A15992770
:100C18000A128A117208303E0A128A1509260A1227
:100C28008A118A3083120313A6000A30A00000300C
:100C3800A1003F08A700A8012708A2002808A300D0
:100C48000A128A15DB260A128A1183120313200856
:100C5800303E0A128A1509260A128A118B3083122D
:100C68000313A6003A300A128A1509260A128A11B5
:100C78008C3083120313A6000A30F2000030F30010
:100C88004008A700A8012708F4002808F5000A1260
:100C98008A1599270A128A117208303E0A128A1593
:100CA80009260A128A118D3083120313A6000A300E
:100CB800A0000030A1004008A700A8012708A20052
:100CC8002808A3000A128A15DB260A128A11831241
:100CD80003132008303E0A128A1509260A128A11BF
:100CE800C030F60056300A128A157E260A128A117A
:100CF8009030F600B2300A128A157E260A128A113E
:100D0800D030F600C5300A128A157E260A128A11DA
:100D1800831203134008031D922E932EC42E3F08FE
:100D2800031D972E982EC42E0A128A15F8250A122A
:100D38008A11C030F6009D300A128A157E260A12E2
:100D48008A118312031387144D3083120313A900E9
:100D58001930A8004F30A700A70BB02EA80BB02E53
:100D6800A90BB02E0A128A15F8250A128A118312C5
:100D780003138710071112110230C1000030C2009E
:100D880008008312031388110815881408146430A6
:100D9800F2000030F300FF30F2070318F30AFF30C7
:100DA800F307720A031DDC2E730A031DDC2EDD2EE9
:100DB800CF2E831203130618E22EE32EE52E013000
:100DC8007F2F8618E82EE92EEB2E02307F2F06198A
:100DD800EE2EEF2EF12E03307F2F88150811881480
:100DE80008146430F2000030F300FF30F2070318F3
:100DF800F30AFF30F3077308803AFF0080307F0260
:100E0800031D082F0130720203180B2F0C2FF92E27
:100E1800831203130618112F122F142F04307F2F5B
:100E28008618172F182F1A2F05307F2F06191D2FF8
:100E38001E2F202F06307F2F8815081588100814BC
:100E48006430F2000030F300FF30F2070318F30AB1
:100E5800FF30F3077308803AFF0080307F02031DDC
:100E6800372F0130720203183A2F3B2F282F831295
:100E780003130618402F412F432F07307F2F861862
:100E8800462F472F492F08307F2F06194C2F4D2FFB
:100E98004F2F09307F2F88150815881408106430E3
:100EA800F2000030F300FF30F2070318F30AFF30B6
:100EB800F3077308803AFF0080307F02031D662F16
:100EC800013072020318692F6A2F572F83120313F8
:100ED80006186F2F702F722F2A307F2F8618752FC4
:100EE800762F782F00307F2F06197B2F7C2F7E2FAF
:100EF80023307F2FFF30080083120313AA012A082A
:100F0800803EA600FF300A128A1509260A128A11A5
:100F1800033083120313A9008A30A8005530A700B4
:100F2800A70B942FA80B942FA90B942F0130FF0027
:100F38007F0883120313AA0710302A02031CA52F67
:100F4800A62F832FC030F60001300A128A157E269C
:100F58000A128A119030F60023300A128A157E266A
:100F68000A128A1183120313AA012A08D03EA60086
:100F7800FF300A128A1509260A128A1103308312D1
:100F88000313A9008A30A8005530A700A70BCA2F61
:100F9800A80BCA2FA90BCA2F0130FF007F088312A4
:100FA8000313AA0710302A02031CDB2FDC2FB92FEA
:100FB8004D3083120313A9001930A8004F30A70041
:100FC800A70BE42FA80BE42FA90BE42F0800F400CB
:100FD800F301741CF02FF12FF52F7208FF007F0822
:100FE800F3070310F20D0310F40C7408031DFD2F12
:080FF800FE2FED2F7308080025
:101BB60001340034831603138801091189100A12AF
:101BC6008A1536270A128A15080083160313060893
:101BD600073886000808F03988008113831203133A
:101BE60088150815881408140800F20101300A1235
:101BF6008A11BC240A128A150430F7003D30F6001B
:101C0600F60B032EF70B032E082E0800FA00F2013E
:101C16008312031326080A128A11BC240A128A1593
:101C2600F201F20A7A080A128A11BC240A128A15EB
:101C360008000A128A15DD250A128A150A128A1563
:101C4600E8250A128A158316031307118312031354
:101C560007118316031387108312031387100A12C2
:101C66008A11F2240A128A150B178B170800803086
:101C7600F600D6300A128A157E260A128A15C03058
:101C8600F600CE300A128A157E260A128A15903080
:101C9600F60084300A128A157E260A128A15D0307A
:101CA600F600DE300A128A157E260A128A15080008
:101CB600F4000A128A11C5260A128A15F50074085C
:101CC600031D662E672E692E75087D2E750A03196B
:101CD6006D2E6E2E752E7B080319722E732E752EA1
:101CE600FB01672E750A031D792E7A2E7C2EFB01C9
:101CF600FB0AFF300800F700F20176080A128A1183
:101D0600BC240A128A15992EF201F20A7708840079
:101D16000A128A1100250A128A150A128A11BC248F
:101D26000A128A150130FF007F08F707770884003A
:101D36000A128A1100250A128A15003A031DA42EDA
:101D4600A52E872E0800831203138C1CAB2EAC2EF7
:101D5600D42E0130B2070318B30A0030B307E230BD
:101D66003206043003193306031DBA2EBB2ED32EBA
:101D7600B201B30140080319C12EC22EC52E01308F
:101D8600C002D32E4008031DC92ECA2ED32E3F08EB
:101D96000319CE2ECF2ED32E0130BF023B30C0000A
:101DA6008C1071088A00700E8300FE0E7E0E0900EC
:101DB60083120313A501A31FE12EE22EE92EA20929
:101DC600A309A20A0319A30AA501A50AA11FEC2EBD
:101DD600ED2EF22EA009A109A00A0319A10A2008D6
:101DE60021040319F72EF82E272FA401A40A062F83
:101DF60001300310A00DA10DFF3E031DFC2E013086
:101E0600FF007F08A407A11F092F0A2FFB2E210818
:101E16002302031D102F20082202031C132F142F48
:101E26001A2F2008A2022108031CA303A3020130D3
:101E36000310A10CA00CFF3E031D1B2F0130A402B2
:101E4600031D262F272F0A2F250803192B2F2C2F8A
:101E5600312FA209A309A20A0319A30A2308A10084
:101E66002208A0000800C330F700CD30F600F60BBC
:101E76003A2FF70B3A2FF20133300A128A11BC249B
:101E86000A128A151B30F7009E30F600F60B492F12
:101E9600F70B492F0000F20133300A128A11BC24D5
:101EA6000A128A15A630F600F60B572F0000F2012B
:101EB60033300A128A11BC240A128A15622F632F44
:101EC6000000F20102300A128A11BC240A128A1595
:101ED600A630F600F60B6D2F0000F20128300A122C
:101EE6008A11BC240A128A15A630F600F60B792F41
:101EF6000000F20101300A128A11BC240A128A1566
:101F06000430F7003D30F600F60B872FF70B872FCE
:101F16008C2FF2010C300A128A11BC240A128A157F
:101F2600A630F600F60B952F00000800F701F31F08
:101F36009D2F9E2FA52FF209F309F20A0319F30A22
:101F4600F701F70AF51FA82FA92FB22FF409F509F3
:101F5600F40A0319F50A0130FF007F08F706F801B5
:101F6600F901720873040319B92FBA2FF12FF6017C
:101F7600F60AC82F01300310F20DF30DFF3E031DC4
:101F8600BE2F0130FF007F08F607F31FCB2FCC2FA3
:101F9600BD2F01300310F80DF90DFF3E031DCD2FA7
:101FA60073087502031DD92F72087402031CDC2FF7
:101FB600DD2FE42F7208F4027308031CF503F50203
:101FC600781401300310F30CF20CFF3E031DE52FCD
:101FD6000130F602031DF02FF12FCC2F77080319DD
:101FE600F52FF62FFB2FF809F909F80A0319F90A54
:0A1FF6007908F3007808F2000800F3
:02400E00FB3F76
:00000001FF
